{
  "contractName": "parkingSystem",
  "abi": [
    {
      "inputs": [],
      "stateMutability": "payable",
      "type": "constructor"
    },
    {
      "inputs": [
        {
          "internalType": "uint256",
          "name": "",
          "type": "uint256"
        }
      ],
      "name": "userAddresses",
      "outputs": [
        {
          "internalType": "address",
          "name": "",
          "type": "address"
        }
      ],
      "stateMutability": "view",
      "type": "function"
    },
    {
      "inputs": [
        {
          "internalType": "address",
          "name": "driver",
          "type": "address"
        }
      ],
      "name": "park",
      "outputs": [],
      "stateMutability": "payable",
      "type": "function"
    },
    {
      "inputs": [
        {
          "internalType": "address",
          "name": "driver",
          "type": "address"
        }
      ],
      "name": "exit",
      "outputs": [],
      "stateMutability": "nonpayable",
      "type": "function"
    },
    {
      "inputs": [
        {
          "internalType": "address payable",
          "name": "receiverAddr",
          "type": "address"
        },
        {
          "internalType": "uint256",
          "name": "receiverAmnt",
          "type": "uint256"
        }
      ],
      "name": "withdraw",
      "outputs": [],
      "stateMutability": "nonpayable",
      "type": "function"
    },
    {
      "inputs": [],
      "name": "remainingParking",
      "outputs": [
        {
          "internalType": "uint256",
          "name": "",
          "type": "uint256"
        }
      ],
      "stateMutability": "view",
      "type": "function"
    },
    {
      "inputs": [],
      "name": "parkedCar",
      "outputs": [
        {
          "internalType": "uint256",
          "name": "",
          "type": "uint256"
        }
      ],
      "stateMutability": "view",
      "type": "function"
    },
    {
      "inputs": [],
      "name": "fetchParked",
      "outputs": [
        {
          "internalType": "address[]",
          "name": "",
          "type": "address[]"
        }
      ],
      "stateMutability": "view",
      "type": "function"
    }
  ],
  "bytecode": "0x608060405260036002556000600355336000806101000a81548173ffffffffffffffffffffffffffffffffffffffff021916908373ffffffffffffffffffffffffffffffffffffffff16021790555034600181905550610948806100646000396000f3fe6080604052600436106100705760003560e01c8063934003531161004e5780639340035314610108578063b42652e914610133578063e87bdb811461015c578063f3fef3a31461017857610070565b80633bad118114610075578063502c9bd5146100a05780635c9d88dd146100dd575b600080fd5b34801561008157600080fd5b5061008a6101a1565b60405161009791906105af565b60405180910390f35b3480156100ac57600080fd5b506100c760048036038101906100c2919061060c565b61022f565b6040516100d49190610648565b60405180910390f35b3480156100e957600080fd5b506100f261026e565b6040516100ff9190610672565b60405180910390f35b34801561011457600080fd5b5061011d610278565b60405161012a9190610672565b60405180910390f35b34801561013f57600080fd5b5061015a600480360381019061015591906106b9565b61028f565b005b610176600480360381019061017191906106b9565b610389565b005b34801561018457600080fd5b5061019f600480360381019061019a9190610724565b610474565b005b6060600480548060200260200160405190810160405280929190818152602001828054801561022557602002820191906000526020600020905b8160009054906101000a900473ffffffffffffffffffffffffffffffffffffffff1673ffffffffffffffffffffffffffffffffffffffff16815260200190600101908083116101db575b5050505050905090565b6004818154811061023f57600080fd5b906000526020600020016000915054906101000a900473ffffffffffffffffffffffffffffffffffffffff1681565b6000600354905090565b600060035460025461028a9190610793565b905090565b6001600360008282546102a29190610793565b925050819055506000805b600480549050811015610343578273ffffffffffffffffffffffffffffffffffffffff16600482815481106102e5576102e46107c7565b5b9060005260206000200160009054906101000a900473ffffffffffffffffffffffffffffffffffffffff1673ffffffffffffffffffffffffffffffffffffffff161415610330578091505b808061033b906107f6565b9150506102ad565b5060048181548110610358576103576107c7565b5b9060005260206000200160006101000a81549073ffffffffffffffffffffffffffffffffffffffff02191690555050565b600060035460025461039b9190610793565b116103db576040517f08c379a00000000000000000000000000000000000000000000000000000000081526004016103d29061089c565b60405180910390fd5b34600160008282546103ed91906108bc565b9250508190555060016003600082825461040791906108bc565b925050819055506004819080600181540180825580915050600190039060005260206000200160009091909190916101000a81548173ffffffffffffffffffffffffffffffffffffffff021916908373ffffffffffffffffffffffffffffffffffffffff16021790555050565b8173ffffffffffffffffffffffffffffffffffffffff166108fc829081150290604051600060405180830381858888f193505050501580156104ba573d6000803e3d6000fd5b505050565b600081519050919050565b600082825260208201905092915050565b6000819050602082019050919050565b600073ffffffffffffffffffffffffffffffffffffffff82169050919050565b6000610516826104eb565b9050919050565b6105268161050b565b82525050565b6000610538838361051d565b60208301905092915050565b6000602082019050919050565b600061055c826104bf565b61056681856104ca565b9350610571836104db565b8060005b838110156105a2578151610589888261052c565b975061059483610544565b925050600181019050610575565b5085935050505092915050565b600060208201905081810360008301526105c98184610551565b905092915050565b600080fd5b6000819050919050565b6105e9816105d6565b81146105f457600080fd5b50565b600081359050610606816105e0565b92915050565b600060208284031215610622576106216105d1565b5b6000610630848285016105f7565b91505092915050565b6106428161050b565b82525050565b600060208201905061065d6000830184610639565b92915050565b61066c816105d6565b82525050565b60006020820190506106876000830184610663565b92915050565b6106968161050b565b81146106a157600080fd5b50565b6000813590506106b38161068d565b92915050565b6000602082840312156106cf576106ce6105d1565b5b60006106dd848285016106a4565b91505092915050565b60006106f1826104eb565b9050919050565b610701816106e6565b811461070c57600080fd5b50565b60008135905061071e816106f8565b92915050565b6000806040838503121561073b5761073a6105d1565b5b60006107498582860161070f565b925050602061075a858286016105f7565b9150509250929050565b7f4e487b7100000000000000000000000000000000000000000000000000000000600052601160045260246000fd5b600061079e826105d6565b91506107a9836105d6565b9250828210156107bc576107bb610764565b5b828203905092915050565b7f4e487b7100000000000000000000000000000000000000000000000000000000600052603260045260246000fd5b6000610801826105d6565b91507fffffffffffffffffffffffffffffffffffffffffffffffffffffffffffffffff82141561083457610833610764565b5b600182019050919050565b600082825260208201905092915050565b7f4e6f20656d70747920737061636520617661696c61626c650000000000000000600082015250565b600061088660188361083f565b915061089182610850565b602082019050919050565b600060208201905081810360008301526108b581610879565b9050919050565b60006108c7826105d6565b91506108d2836105d6565b9250827fffffffffffffffffffffffffffffffffffffffffffffffffffffffffffffffff0382111561090757610906610764565b5b82820190509291505056fea2646970667358221220e5a38e025faee1cfb2ec2566961747c0a4f15fc3d6a48c90a971913121842c6664736f6c634300080c0033",
  "immutableReferences": {},
  "source": "// SPDX-License-Identifier: MIT\r\npragma solidity >=0.7.0 <0.9.0;\r\n\r\ncontract parkingSystem {\r\n    \r\n    address private owner;\r\n    uint totalValue;\r\n    uint totalParking = 3;\r\n    uint parked = 0;\r\n    address[] public userAddresses;\r\n\r\n    constructor() payable{\r\n        owner = msg.sender;\r\n        totalValue = msg.value;  \r\n    }\r\n    \r\n    function park(address driver) payable external{\r\n        require(totalParking - parked > 0,\"No empty space available\");\r\n        totalValue += msg.value;\r\n        parked += 1;\r\n        userAddresses.push(driver);\r\n        }\r\n\r\n    function exit(address driver) external{\r\n        parked -= 1;\r\n        uint index = 0;\r\n        for(uint i = 0; i < userAddresses.length; i++){\r\n            if(userAddresses[i] == driver){index = i;}\r\n        }\r\n        delete userAddresses[index];    \r\n    }\r\n    \r\n    function withdraw(address payable receiverAddr, uint receiverAmnt) external {receiverAddr.transfer(receiverAmnt);}\r\n\r\n    function remainingParking() external view returns(uint){return (totalParking - parked);}\r\n\r\n    function parkedCar() external view returns(uint){return parked;}\r\n\r\n    function fetchParked() external view returns(address[] memory){return userAddresses;}\r\n}",
  "sourcePath": "C:\\Users\\izaan\\Desktop\\IOT_Project\\iot_admin_ui\\smartContract\\contracts\\Parking.sol",
  "compiler": {
    "name": "solc",
    "version": "0.8.12+commit.f00d7308.Emscripten.clang"
  },
  "schemaVersion": "3.4.6",
  "updatedAt": "2022-05-27T07:37:51.350Z",
  "devdoc": {
    "kind": "dev",
    "methods": {},
    "version": 1
  },
  "userdoc": {
    "kind": "user",
    "methods": {},
    "version": 1
  }
}